:020000040000FA
:100000002BEF00F0036A026EFF0E0226D8A0032633
:10001000D8A028EF00F0030E016EE60E02D8F4D748
:10002000016AFC0F006E011ED8A006D0FF0E000072
:100030000026D8B0FCD700260400013EF7D71200F6
:10004000D89000360136FF0FFBE2005028EF00F099
:10005000000104001200926A936A946A956A966A93
:100060008090809280948096809A819081928194F1
:1000700081968198819A819C819E829082928294BD
:1000800082968298829A829C829E839083928394A5
:1000900083968398839A839C839E8490849284948D
:1000A000010E1B6E1A6A0400040E1A5CD8B064EFCD
:1000B00000F01BC080FF070E036ED00EA4DFD890A7
:1000C0001B361A2AD8A4EFD78096808A070E036EB3
:1000D000D00E99DF809A070E036ED00E94DF010ECA
:1000E0001B6E1A6A0400080E1A5CD8B083EF00F089
:1000F0001BC081FF070E036ED00E85DFD8901B3624
:100100001A2AD8A4EFD7819E070E036ED00E7BDF8C
:10011000010E1B6E1A6A0400080E1A5CD8B09CEF20
:1001200000F01BC082FF070E036ED00E6CDFD8906C
:100130001B361A2AD8A4EFD7829E070E036ED00E64
:1001400062DF010E1B6E1A6A0400080E1A5CD8B03A
:10015000B5EF00F01BC083FF070E036ED00E53DF18
:10016000D8901B361A2AD8A4EFD7839E070E036EA9
:10017000D00E49DF010E1B6E1A6A0400030E1A5CD2
:10018000D8B0CEEF00F01BC084FF070E036ED00E78
:100190003ADFD8901B361A2AD8A4EFD78494070EDA
:0801A000036ED00E30DF7CD7A6
:020000040030CA
:08000000FFF1FEEFFFFFFBFF23
:00000001FF
