:10000000C928FF3FFF3FFF3F03138312A903A90342
:100010002908003C03181128A90300000000000073
:100020000828000000000000000000000800031382
:100030008312A40CA413200884000130A700003010
:10004000A80028082602031D272827082502031CCC
:100050004E282108F1000130F000710803193428FE
:10006000F00D7010FF3F2E28700880042408A900AE
:1000700004202108F1000130F00071080319442820
:10008000F00D7010FF3F3E28F0097008800524082D
:10009000A9000420A70A0319A80A21280800C830CB
:1000A00003138312A400C830A500A601172008007E
:1000B000B43003138312A400C830A500A601172092
:1000C0000800A03003138312A400C830A500A601C5
:1000D00017200800503003138312A4001430A50029
:1000E0000030A60017200800463003138312A40036
:1000F0001430A5000030A600172008003C30031380
:100100008312A4005030A5000030A600172008007C
:100110000313831222088400200803198F2804087F
:10012000A00084172308F1000130F00071080319C2
:100130009D28F00D7010FF3F9728F009700880058A
:100140002308A10008004F205820612061204F2083
:100150005820612061204F20582061204F205820D6
:10016000612061204F2058206120612061205820AB
:1001700058204F200800093003138312A2002208E0
:10018000003C0318C8286A2074207E20A203BF28E0
:100190000800F03003138316860006308312A20095
:1001A0000330A3008820A3201A30FC00FF30FB009E
:1001B000FF30FA00FC0BDD28E428FB0BE028E328E5
:1001C000FA0BE028DD28DA287F30FB00FF30FA0048
:1001D000FB0BEB28EE28FA0BEB28E8285930FA0045
:1001E000FA0BF02800000000BB20F528FF3FFF3F7E
:02400E007A3FF7
:00000001FF
