:10000000332CFF3FFF3FFF3FFF00030E8301E30060
:100010000408E2000A08E4008A0170088316AF00B1
:100020008312A40A0319A50A833081002508013A26
:10003000031D1C2838302406031D3828A401A501FF
:10004000A20A3C302202031C3828A201A10A3C303B
:100050002102031C3828A101A00A18302002031C29
:100060003828A001A30A2308073A031D3828A30152
:1000700020308B0083162F08F000831264088A005A
:1000800062088400630E8300FF0E7F0E09000130BA
:1000900003138312FA00FA0B4B28000008002430E7
:1000A00003138312FB00FF30FA00FB0B58285B2878
:1000B000FA0B582855289E30FA00FA0B5D280800E4
:1000C000533003138312FA00FA0B64280800031359
:1000D00083122608840083162E0803196F288011C6
:1000E00080130013801200120011AE1B80172E1B0C
:1000F0000017AE1A80162E1A00168312270803194D
:1001000083280011842800158015472083162E08A7
:1001100003198A2880118013001380120012001125
:10012000AE1980172E190017AE1880162E1800165B
:100130008312270803199E2800119F280015801597
:100140004720801127080319A7284F20A8286020DE
:10015000080003138312710DF80DF90D7408F802ED
:100160007508031C750FF902F00DF10D0F30FC003E
:10017000710DF80DF90D7408701CC428F80275088B
:10018000031C750FF902C928F80775080318750FC5
:10019000F907F00DF10DFC0BB8287018D52874087C
:1001A000F80775080318750FF90700000800031316
:1001B000831229088A002A08820008000313831288
:1001C000A7016F088316AE0067200130A700080062
:1001D00003138312F8010830FC00700DF80D740849
:1001E000F8020318F528F8070310F00DFC0BED28B2
:1001F000080003138312FD01F901F801710870046E
:100200000319003471087506FA00FA1BFD09FB0199
:10021000F51F0F29F409F509F40A0319F50AF11F6E
:100220001629F009F109F00A0319F10A7108750499
:10023000FA00FA1B2B29A9207B183E29FD1F003448
:10024000F009F109F00A0319F10AF809F909F80AA5
:100250000319F90A0034F51F3A29F11B36297108F0
:10026000F9007008F800F101F0011E29F101F00118
:10027000F00A0034F109F009FB0A1B29F80A0319F6
:10028000F90A74087802031D1E2975087902031DF6
:100290001E29F901F801F00A0319F10AF11F1E29BC
:1002A0000000FF3408000030031383169818013053
:1002B000F1007108003A031D5F29000053298312E1
:1002C0006F08990008004F204F204F206808A600B3
:1002D000680884008001841780018413801600164A
:1002E000801580114F20801580114F2080158011BE
:1002F0004F2080160012801580114F20800180163B
:100300008015801180018017801580114F20800199
:100310000016801580118001801580114F2080010A
:10032000801580110016801580114F2080018015E6
:1003300080110016801600178017801580114F203D
:100340000130A700080003138312EB016B08680754
:10035000F2006B086907F0006A080318013FF1001A
:100360007008AA007108A9000A08A800D720F000A8
:1003700028088A0072088400700880006B08F0006A
:10038000EB0A7008680784000008F0007008031D7D
:10039000A629080043345334543465346334683434
:1003A000003408000313831268080319D729E729CA
:1003B0008030E800F829C030E800F8299430E800DF
:1003C000F829D430E800F8298030E800F8296808D6
:1003D000013A0319D8296808023A0319DB29680889
:1003E000033A0319DE296808043A0319E129E429CC
:1003F0006903F0006808F0077008E80070088316C9
:10040000AE006720A701EB016B086A0784000008B3
:10041000F00070080319142A6B086A0784000008AA
:10042000EF00DE20EB0A042A0130A70008004E345A
:100430006F34763465346D3462347234653420340C
:100440003234303430343634003408000313831629
:10045000981690308312980083168717071383121B
:100460008C1E352A1A08EC002F2A08000313831269
:1004700069088400203080002030840A8000840ACB
:1004800080000130EA006808093C0318482AEA0A9B
:100490006808633C03184D2AEA0A03306907F00034
:1004A00070088400800184036A08003C0318722AE3
:1004B0000A30F4006808F000E8207808F0007008BE
:1004C000800000086802F000F101031CF1030A300B
:1004D000F400F501F9207008E8003030800784034B
:1004E000EA03542A0800031383126B08ED006C081A
:1004F000EE0080306E06F00080306A067002031D48
:10050000832A69086D0203188F2A6D086807840022
:100510000008EF005321ED0A0319EE0A792A0800BA
:100520000030031383128C1A0130F1007108F000BF
:100530000800031383121A08E800981CA12A181255
:1005400018166808F0000800031383128601FF30B4
:1005500083168600831287010F308316870086304A
:100560008100833083128100A0308B000630E800C8
:10057000632181308316990018152622A001A1015C
:10058000A201A401A501A30101308316AE006720DA
:100590000C308316AE0067202B30E800CA30E9002B
:1005A0000130EA00A3210130E8000130E9002B30DE
:1005B000EA00D2212B30E8001730E9000230EA00CF
:1005C000A3210230E8000130E9002B30EA00D221FB
:1005D0001A30FC00FF30FB00FF30FA00FC0BF12A60
:1005E000F82AFB0BF42AF72AFA0BF42AF12AEE2A4E
:1005F0007F30FB00FF30FA00FB0BFF2A022BFA0BC7
:10060000FF2AFC2A5930FA00FA0B042B00000000E4
:1006100001308316AE006720080003138312200800
:10062000E800A030E90036222108E800A530E90002
:1006300036222208E800AA30E90036228316210873
:10064000203A031D252B3030A1002608203A031D37
:100650002B2B3030A6002B08203A031D312B3030D5
:10066000AB0001308312E8000130E90023083A3F73
:1006700084000008EA00D2210130E8000530E900DA
:10068000A130EA00D2213A30EF00DE200130E8004C
:100690000830E900A630EA00D2213A30EF00DE202F
:1006A0000130E8000B30E900AB30EA00D2210C3019
:1006B0008316AE0067200800DD2B03138312200889
:1006C000E800A030E90036222108E800A530E90062
:1006D00036222208E800AA30E900362283162108D3
:1006E000203A031D752B3030A1002608203A031D47
:1006F0007B2B3030A6002B08203A031D812B303095
:10070000AB00831223083A3F84000008E80003305E
:10071000E9000030EA00EB01EC017322A030E800B0
:100720000330E9000030EA000130EB000030EC005B
:1007300073223A30EF005321A530E8000330E9007E
:100740000030EA000130EB000030EC0073223A3058
:10075000EF005321AA30E8000330E9000030EA003E
:100760000130EB000030EC007322E72B9022700880
:10077000031DBC2B0000B62B99227008A300902209
:100780007008031DC52B0000BF2B99227008A00024
:1007900090227008031DCE2B0000C82B99227008F0
:1007A000A10090227008031DD72B0000D12B9922A5
:1007B0007008A200A401A501E72B031383126708A8
:1007C000313A03195D2B6708023A0319B62B08006A
:1007D0004C3003138312C2007530C3006E30C40066
:1007E000C5014D30C6006130C7007230C800C90174
:1007F0004D30CA006530CB007230CC00CD0147309F
:10080000CE006930CF006F30D000D1015630D20019
:100810006530D3006E30D400D5015330D60061303E
:10082000D7006230D800D9014430DA006F30DB00E5
:100830006D30DC00DD012D30DE002D30DF002D308D
:10084000E000E1014230BA004630BB004A30BC0053
:100850004E30BD005230BE005630BF005A30C0008E
:100860005E30C1000800E823A4220D232508013AC8
:10087000031D3C2C37302406031D3F2C0D239022F2
:10088000700803194A2C99227008E500E6016508F2
:10089000E7005C23362C4B2CFF3FFF3FFF3FFF3F21
:02400E00FE3F73
:00000001FF
