:100000004428FF3FFF3FFF3F0313831698169030AD
:1000100083129800831687170713F001F1018312EA
:100020008C1AF10A71087002031919281A08A10024
:100030000D28080003138312F0018C1AF00A7008CF
:10004000A1000800031383121A08A200F001F101B5
:100050009818F10A7108700203193028181218163E
:100060002208A100080003138312F001F101831696
:100070009818F10A70087102031D40280000332807
:100080008312210899000800813003138316990018
:10009000181104201A2003138312F00121087002A2
:1000A0000319582822202108A0002008A10033208D
:1000B0004A285928FF3FFF3FFF3FFF3FFF3FFF3FD9
:02400E007A3FF7
:00000001FF
