:100000008A150028FF3FFF3F013003138312FA00D7
:10001000FA0B082800000800243003138312FB00A9
:10002000FF30FA00FB0B15281828FA0B15281228A8
:100030009E30FA00FA0B1A2808005330031383127B
:10004000FA00FA0B21280800031383122108840008
:100050005E0803192B288001DE1B80175E1B00172A
:10006000DE1A80165E1A00162208031939280011BC
:100070003A280015801504205E0803193F288011D6
:100080008001DE1980175E190017DE1880165E18D1
:100090000016220803194E2800114F28001580155C
:1000A000042080112208031957280C2058281D20ED
:1000B000080003138312A2015D08DE002420013032
:1000C000A20008007428803003138312D900872807
:1000D000C030D90087289430D9008728D430D9007F
:1000E00087288030D9008728031383125908013AE2
:1000F000031963285908023A031968285908033A72
:1001000003196B285908043A03196E2871285A03F9
:10011000F0005908F0077008D9007008DE002420AC
:10012000A201DC015C085B0784000008F000700895
:100130000319A2285C085B0784000008DD00592031
:10014000DC0A92280130A20008000313831224085D
:100150008A00250882000800031383127408F8023D
:100160007508031C750FF9027608031C760FFA0256
:100170007708031C770FFB02F30D0730FC00730DAB
:10018000F80DF90DFA0DFB0D7408731CD528F80253
:100190007508031C750FF9027608031C760FFA0226
:1001A0007708031C770FFB02E228F807750803188D
:1001B000750FF90776080318760FFA077708031802
:1001C000770FFB07F30DFC0BBF28720DF80DF90D2F
:1001D000FA0DFB0D7408731CFB28F8027508031C4C
:1001E000750FF9027608031C760FFA027708031CD4
:1001F000770FFB020829F80775080318750FF90730
:1002000076080318760FFA0777080318770FFB07AD
:10021000F20D0730FC00720DF80DF90DFA0DFB0D13
:100220007408721C2129F8027508031C750FF90265
:100230007608031C760FFA027708031C770FFB027F
:100240002E29F80775080318750FF90776080318A3
:10025000760FFA0777080318770FFB07F20DFC0BF0
:100260000B29710DF80DF90DFA0DFB0D7408721CB8
:100270004729F8027508031C750FF9027608031C5C
:10028000760FFA027708031C770FFB025429F80750
:1002900075080318750FF90776080318760FFA0723
:1002A00077080318770FFB07F10D0730FC00710D7D
:1002B000F80DF90DFA0DFB0D7408711C6D29F8028B
:1002C0007508031C750FF9027608031C760FFA02F5
:1002D0007708031C770FFB027A29F80775080318C3
:1002E000750FF90776080318760FFA0777080318D1
:1002F000770FFB07F10DFC0B5729700DF80DF90D69
:10030000FA0DFB0D7408711C9329F8027508031C83
:10031000750FF9027608031C760FFA027708031CA2
:10032000770FFB02A029F80775080318750FF90766
:1003300076080318760FFA0777080318770FFB077C
:10034000F00D0730FC00700DF80DF90DFA0DFB0DE6
:100350007408701CB929F8027508031C750FF9029E
:100360007608031C760FFA027708031C770FFB024E
:10037000C629F80775080318750FF90776080318DA
:10038000760FFA0777080318770FFB07F00DFC0BC1
:10039000A3297018D9297408F80775080318750F70
:1003A000F90776080318760FFA0777080318770F0E
:1003B000FB07080003138312FB09FA09F909F8097E
:1003C000F80A0319F90A0319FA0A0319FB0A0800C3
:1003D0000C200C200C204408A1004408840080015B
:1003E00084178001841380160016801580110C205C
:1003F000801580110C20801580110C2080160012B1
:10040000801580110C2080018016801580118001DC
:100410008017801580110C20800100168015801136
:100420008001801580110C2080018015801100163C
:10043000801580110C208001801580110016801617
:1004400000178017801580110C200130A2000800D1
:1004500003138312C8014808493FF20048084607C1
:10046000F00047080318013FF1007008A50071086B
:10047000A4000A08A300A520F00023088A0072083F
:100480008400700880004808F000C80A0030F100BD
:100490004608F00747080318013FF1077008A50058
:1004A0007108A4000A08A300A520F00023088A0010
:1004B0007008031D2B2A4408D9004508DA0049308A
:1004C000DB00622008004D346F346E3469347434BC
:1004D0006F3472342034423461347434743465348B
:1004E0007234693461340034080043345334543472
:1004F00065346334683420342034533465347434C0
:100500002034323430343034373400340800463448
:10051000693472346D347734613472346534203424
:1005200020347634203432342E34303436340034AF
:1005300008005F345F345F345F345F345F345F34AE
:100540005F345F345F345F345F345F345F345F3413
:100550005F3400340800243003138312FA00FA0BCE
:10056000AF2A0000080000300313831698180130EA
:10057000F1007108003A031DBF2A0000B32A83125C
:10058000440899000800D52A803003138312C40060
:10059000E82AC030C400E82A9430C400E82AD430E5
:1005A000C400E82A8030C400E82A031383124408F8
:1005B000013A0319C42A4408023A0319C92A440813
:1005C000033A0319CC2A4408043A0319CF2AD22A41
:1005D0004503F0004408F0077008C4000130A20091
:1005E0007008DE002420A2014608DE00242001302D
:1005F000A2000800031383122230FC00F801F90165
:10060000FA01FB01FC030319302B0310FB0CFA0C5D
:10061000F90CF80CF30CF20CF10CF00C031C022B8F
:10062000FC030319222B7408F80775080318750FCB
:10063000F90776080318760FFA0777080318770F7B
:10064000FB07062B7408F80775080318750FF907E0
:1006500076080318760FFA0777080318770FFB0759
:10066000080003138312FC01F71BFC0AFD01FB01C8
:10067000FA01F901F8017308720471047004031996
:10068000C52B73087706A000A01BFD09F71F532B8D
:10069000F409F509F609F709F40A0319F50A03192B
:1006A000F60A0319F70AF31F602BF009F109F209A2
:1006B000F309F00A0319F10A0319F20A0319F30AFC
:1006C00073087704A000A01B812BAC20FC1B9E2B81
:1006D000FD1FC52BF009F109F209F309F00A03190E
:1006E000F10A0319F20A0319F30AF809F909FA09D8
:1006F000FB09F80A0319F90A0319FA0A0319FB0A94
:10070000C52BF71F982BF31B922B7308FB00720865
:10071000FA007108F9007008F800F301F201F10124
:10072000F001682BF301F201F101F001F00A00344D
:10073000F309F209F109F009FC17652BF80A03190E
:10074000F90A0319FA0A0319FB0A74087802031D4F
:10075000682B75087902031D682B76087A02031D41
:10076000682B77087B02031D682BFB01FA01F90156
:10077000F801F00A0319F10A0319F20A0319F30A3E
:10078000F31F682BA0012016FF34A0017C1CC92B8D
:10079000DA21003F08008B01C430031383169F0049
:1007A000EF308500860187010800013003138312B2
:1007B000A6000030A7003708003A031DE22B0512FF
:1007C000A801E52B05160130A80008000630031328
:1007D0008312C400E8212130FB00FF30FA00FB0B3C
:1007E000F22BF52BFA0BF22BEF2B6030FA00FA0B01
:1007F000F72B00000130DE0024202130FB00FF3009
:10080000FA00FB0B042C072CFA0B042C012C603093
:10081000FA00FA0B092C00000C30DE00242007300F
:10082000FC00FF30FB00FF30FA00FC0B182C1F2CE3
:10083000FB0B1B2C1E2CFA0B1B2C182C152C6030C0
:10084000FB00FF30FA00FB0B262C292CFA0B262C80
:10085000232C1330FA00FA0B2B2C000000000800A8
:10086000013003138312C4000130C5006330C60099
:100870000230C70028220230C4000130C5007530A4
:10088000C6000230C70028223330FC00FF30FB00D6
:10089000FF30FA00FC0B4D2C542CFB0B502C532C2E
:1008A000FA0B502C4D2C4A2CFD30FB00FF30FA0087
:1008B000FB0B5B2C5E2CFA0B5B2C582CB530FA0032
:1008C000FA0B602C00000130C4000130C5008730F5
:1008D000C6000230C70028220230C4000130C50023
:1008E0009930C6000230C70028223330FC00FF30A8
:1008F000FB00FF30FA00FC0B7E2C852CFB0B812CBF
:10090000842CFA0B812C7E2C7B2CFD30FB00FF30DD
:10091000FA00FB0B8C2C8F2CFA0B8C2C892CB5300D
:10092000FA00FA0B912C00000130DE0024200800B0
:100930004134553444344934203420342034203474
:100940003A342034203420342E34203420345634A9
:10095000003408004D344534523443344534443473
:10096000453453343A342034203420342E34203467
:100970002034563400340800031383129F01C03022
:100980009F0483161F179F1783123708F000F00D7E
:100990007010F00D7010F00D701070089F041F148F
:1009A000AB221F151F1DD62C0000D22C1F100830A3
:1009B000F2001E08F000F10172080319E42CF00D9A
:1009C000F10D7010FF3FDD2C83161E08F00400307F
:1009D000F1040800031383123708F0003808F1000F
:1009E000F201F3017230F4000630F500F601F70170
:1009F000FA22FF30F4000330F500F601F70131234D
:100A00007008BB007108BC007208BD007308BE000E
:100A10003908F0003A08F100F201F3017230F400F5
:100A20000630F500F601F701FA22FF30F40003303A
:100A3000F500F601F70131237008BF007108C0000E
:100A40007208C1007308C2005B30C400B322E830F2
:100A5000F4000330F500F601F7013B08F0003C0814
:100A6000F1003D08F2003E08F30031237008C30096
:100A70007008C400B3220130C4000B30C500430825
:100A8000303FC600C3226430F400F501F601F701DF
:100A90003B08F0003C08F1003D08F2003E08F3007E
:100AA00031230A30F400F501F601F701312378080B
:100AB000F0007908F1007A08F2007B08F300700872
:100AC000C3007008C400B3224308303FDD00592042
:100AD0002E30DD0059200A30F400F501F601F7014F
:100AE0003B08F0003C08F1003D08F2003E08F3002E
:100AF00031230A30F400F501F601F70131237808BB
:100B0000F0007908F1007A08F2007B08F300700821
:100B1000C3007008C400B3224308303FDD005920F1
:100B20000A30F400F501F601F7013B08F0003C083B
:100B3000F1003D08F2003E08F30031237808F00090
:100B40007908F1007A08F2007B08F3007008C3000E
:100B50007008C400B3224308303FDD005920E8305C
:100B6000F4000330F500F601F7013F08F0004008FB
:100B7000F1004108F2004208F30031237008C3007D
:100B80007008C400B3220230C4000B30C500430813
:100B9000303FC600C3226430F400F501F601F701CE
:100BA0003F08F0004008F1004108F2004208F3005D
:100BB00031230A30F400F501F601F70131237808FA
:100BC000F0007908F1007A08F2007B08F300700861
:100BD000C3007008C400B3224308303FDD00592031
:100BE0002E30DD0059200A30F400F501F601F7013E
:100BF0003F08F0004008F1004108F2004208F3000D
:100C000031230A30F400F501F601F70131237808A9
:100C1000F0007908F1007A08F2007B08F300700810
:100C2000C3007008C400B3224308303FDD005920E0
:100C30000A30F400F501F601F7013F08F000400822
:100C4000F1004108F2004208F30031237808F00077
:100C50007908F1007A08F2007B08F3007008C300FD
:100C60007008C400B3224308303FDD0059205D30D6
:100C7000C400B3220800013003138312A600003021
:100C8000A7000130A80008000313831698169030BF
:100C90008312980083168717071383128C1E532E16
:100CA0001A08BB004D2E0800FF3FFF3FFF3FFF3FEC
:100CB000FF3FFF3FFF3FFF3FFF3FFF3FFF3FFF3F44
:100CC000FF3FFF3FFF3FFF3FFF3FFF3FFF3FFF3F34
:100CD000FF3FFF3FFF3FFF3FFF3FFF3FFF3FFF3F24
:100CE000FF3FFF3FFF3FFF3FFF3FFF3FFF3FFF3F14
:101000008A113B268A158A11CB238A150130831257
:10101000B7008A11D5238A158A11E6238A158A1109
:1010200030248A150130C4000130C5009830C60054
:101030000430C7008A1128228A150230C40001300A
:10104000C500AA30C6000430C7008A1128228A15BC
:1010500081308316990018158A1144268A152808AC
:10106000013A031D4228A60A0319A70A00302702E5
:10107000031D3C287E302602031C4228B7018A113A
:10108000D5238A15A901AA01AB01AC01AD01AE01BE
:10109000AF01B001B101B20180303206F000803002
:1010A000013A7002031D5628903031020318E628D9
:1010B000B7018A11BC248A150030F200F3008312B4
:1010C0002908F0072A0803182A0FF1072B0803182C
:1010D0002B0FF2072C0803182C0FF3077008A90038
:1010E0007108AA007208AB007308AC000130B700A9
:1010F0008A11BC248A150030F200F30083122D08F7
:10110000F0072E0803182E0FF1072F0803182F0FD2
:10111000F20730080318300FF3077008AD007108AC
:10112000AE007208AF007308B0000730FB00FF305C
:10113000FA00FB0B9C289F28FA0B9C2899287930F1
:10114000FA00FA0BA1280000003005190130F40064
:101150007408013A031DE2280D30FC00FF30FB004B
:10116000FF30FA00FC0BB528BC28FB0BB828BB28C5
:10117000FA0BB828B528B228BF30FB00FF30FA00C0
:10118000FB0BC328C628FA0BC328C0282C30FA0052
:10119000FA0BC82800000000003005190130F400E7
:1011A0007408013A0319CC282808013A031DDD28E8
:1011B000B7018A11D5238A15E2280130B7008A11B8
:1011C000D5238A15B10A0319B20A4C289030F400CD
:1011D0000130F500F601F7012908F0002A08F100B6
:1011E0002B08F2002C08F3008A1131238A157008AD
:1011F000B3007108B4007208B5007308B600330874
:10120000A9003408AA003508AB003608AC009030BD
:10121000F4000130F500F601F7012D08F0002E086A
:10122000F1002F08F2003008F3008A1131238A15EB
:101230007008AD007108AE007208AF007308B0000E
:101240003308B7003408B8007008B9007108BA0054
:101250008A11EA248A152F282C29FF3FFF3FFF3FE0
:02400E007A3FF7
:00000001FF
