:100000001929FF3FFF3FFF3F243003138312F00005
:10001000F00B082800000800013003138312B60219
:100020000130B602F0013608700203181C280130B6
:10003000B6020000000012280000000000000800C6
:10004000031383169816903083129800831687172F
:100050000713F001F10183128C1AF10A7108700282
:10006000031935281A08B100292808000313831240
:10007000310884000408AB0084170130F10000301F
:10008000F11BFF30F200320803194B28F10DF20D7D
:100090007110FF3F4428F109F2090008F1057108C9
:1000A00080003208AC000800031383129F01C030A7
:1000B0001F049F0083161F179F1783123308F00039
:1000C000F1010311033003196A28F00DF10D7010CE
:1000D000FF3F63281F08F00470089F001F140420CE
:1000E0001F15F001F1011F19F10A710870020319BF
:1000F0007B28000071281F101E08F000F101031179
:10010000083003198828F00DF10D7010FF3F812889
:1001100083161E087004F2007108F3000030F30427
:1001200072088312B1007308B2000800A401A5018F
:100130001030AA00290DA40DA50D2608A402270839
:10014000031C270FA5020318AC282608A4072708BC
:100150000318270FA5070310A80DA90DAA0B9A28AD
:10016000080003138312F001F10183169818F10AB5
:1001700070087102031DBE280000B12883123108E7
:1001800099000800031383123308B30003110130F0
:100190000319CE28B30CB313FF3FC8282B088400E3
:1001A0000130B1000030B11BFF30B2003508F00063
:1001B0003208F002031DDE2831083402031C18291E
:1001C0000130F1000030F11BFF30F2002C08031960
:1001D000EE28F10DF20D7110FF3FE7280008F10441
:1001E000710880003308B6000C200130031383121D
:1001F000F1000030F11BFF30F2002C080319072931
:1002000003138312F10DF20D7110FF3FFE2803134B
:100210008312F109F2090008F10571088000330822
:10022000B6000C2003138312B10A0319B20AD628B0
:10023000080081300313831699001815202006301A
:1002400003138312F000B1000230B2003620803078
:1002500083169F00FF30850086018312B001B30131
:1002600054203108AD003208AE000430A600A701CA
:100270002D08A8002E08A90096202808F0002908BB
:10028000F1007008AF002F08B100B1202F08B300B3
:100290000A30B4000030B41BFF30B500C220343047
:1002A00003138312F000FF30F100F00B58295B2993
:1002B000F10B58295529D030F200F20B5D29783026
:1002C000F00070082F0203187529861006103018E8
:1002D00006140130F00070083002031D7129B001CE
:1002E0007529013003138312B00082300313831287
:1002F000F0002F08700203188D298614061030189C
:1003000006140130F00070083002031D8929B00185
:100310008D29013003138312B0002F298E29FF3F4E
:00000001FF
