:100000007B2BFF3FFF3FFF3F013003138312FA00BA
:10001000FA0B082800000800243003138312FB00A9
:10002000FF30FA00FB0B15281828FA0B15281228A8
:100030009E30FA00FA0B1A2808005330031383127B
:10004000FA00FA0B21280800031383122108840008
:10005000570803192B2880118013001380120012F7
:100060000011D71B8017571B0017D71A8016571A75
:100070000016220803193E2800113F28001580159C
:10008000042057080319442880118013001380129C
:1000900000120011D719801757190017D7188016AA
:1000A0005718001622080319572800115828001560
:1000B0008015042080112208031960280C20612873
:1000C0001D20080003138312A2015608D700242024
:1000D0000130A2000800243003138312FA00FA0B47
:1000E0006F2800000800031383127408F8027508D3
:1000F000031C750FF9027608031C760FFA027708C5
:10010000031C770FFB02F30D0730FC00730DF80D95
:10011000F90DFA0DFB0D7408731C9C28F802750884
:10012000031C750FF9027608031C760FFA02770894
:10013000031C770FFB02A928F80775080318750F31
:10014000F90776080318760FFA0777080318770F70
:10015000FB07F30DFC0B8628720DF80DF90DFA0D57
:10016000FB0D7408731CC228F8027508031C750F78
:10017000F9027608031C760FFA027708031C770F42
:10018000FB02CF28F80775080318750FF9077608E2
:100190000318760FFA0777080318770FFB07F20D9D
:1001A0000730FC00720DF80DF90DFA0DFB0D740807
:1001B000721CE828F8027508031C750FF90276080E
:1001C000031C760FFA027708031C770FFB02F52851
:1001D000F80775080318750FF90776080318760FE6
:1001E000FA0777080318770FFB07F20DFC0BD228EC
:1001F000710DF80DF90DFA0DFB0D7408721C0E2926
:10020000F8027508031C750FF9027608031C760FB7
:10021000FA027708031C770FFB021B29F807750801
:100220000318750FF90776080318760FFA07770891
:100230000318770FFB07F10D0730FC00710DF80D67
:10024000F90DFA0DFB0D7408711C3429F8027508BC
:10025000031C750FF9027608031C760FFA02770863
:10026000031C770FFB024129F80775080318750F67
:10027000F90776080318760FFA0777080318770F3F
:10028000FB07F10DFC0B1E29700DF80DF90DFA0D91
:10029000FB0D7408711C5A29F8027508031C750FB0
:1002A000F9027608031C760FFA027708031C770F11
:1002B000FB026729F80775080318750FF907760818
:1002C0000318760FFA0777080318770FFB07F00D6E
:1002D0000730FC00700DF80DF90DFA0DFB0D7408D8
:1002E000701C8029F8027508031C750FF902760846
:1002F000031C760FFA027708031C770FFB028D2987
:10030000F80775080318750FF90776080318760FB4
:10031000FA0777080318770FFB07F00DFC0B6A2923
:100320007018A0297408F80775080318750FF907E5
:1003300076080318760FFA0777080318770FFB077C
:10034000080003138312FB09FA09F909F809F80AEE
:100350000319F90A0319FA0A0319FB0A08000C2009
:100360000C200C205208A100520884008001841740
:100370008001841380160016801580110C208015D2
:1003800080110C20801580110C2080160012801521
:1003900080110C208001801680158011800180174B
:1003A000801580110C2080010016801580118001BD
:1003B000801580110C208001801580110016801599
:1003C00080110C2080018015801100168016001706
:1003D0008017801580110C200130A2000800031343
:1003E000831252080319F429042A8030D200152AF6
:1003F000C030D200152A9430D200152AD430D20051
:10040000152A8030D200152A5208013A0319F5291D
:100410005208023A0319F8295208033A0319FB2932
:100420005208043A0319FE29012A5303F000520826
:10043000F0077008D2007008D7002420A201D5016F
:100440005508540784000008F00070080319302A8A
:100450005508540784000008D6006220D50A202AD7
:100460000130A2000800031383129F01C0309F04D3
:1004700083161F179F1783125208F000F00D70109B
:10048000F00D7010F00D701070089F041F146B2099
:100490001F151F1D4D2A0000492A1F100830F200A9
:1004A0001E08F000F101720803195B2AF00DF10D2E
:1004B0007010FF3F542A83161E08F0040030F10428
:1004C00008000313831252080319662A762A803023
:1004D000D200872AC030D200872A9430D200872ADF
:1004E000D430D200872A8030D200872A5208013ABD
:1004F0000319672A5208023A03196A2A5208033A72
:1005000003196D2A5208043A0319702A732A5303F7
:10051000F0005208F0077008D2000130A200700805
:10052000D7002420A2015408D70024200130A200C3
:10053000080003138312FC01F71BFC0AFD01FB01F9
:10054000FA01F901F80173087204710470040319C7
:100550002D2B73087706A000A01BFD09F71FBB2AEF
:10056000F409F509F609F709F40A0319F50A03195C
:10057000F60A0319F70AF31FC82AF009F109F2096C
:10058000F309F00A0319F10A0319F20A0319F30A2D
:1005900073087704A000A01BE92A7320FC1B062B1C
:1005A000FD1F2D2BF009F109F209F309F00A0319D7
:1005B000F10A0319F20A0319F30AF809F909FA0909
:1005C000FB09F80A0319F90A0319FA0A0319FB0AC5
:1005D0002D2BF71F002BF31BFA2A7308FB00720860
:1005E000FA007108F9007008F800F301F201F10156
:1005F000F001D02AF301F201F101F001F00A003418
:10060000F309F209F109F009FC17CD2AF80A0319D8
:10061000F90A0319FA0A0319FB0A74087802031D80
:10062000D02A75087902031DD02A76087A02031DA4
:10063000D02A77087B02031DD02AFB01FA01F901B9
:10064000F801F00A0319F10A0319F20A0319F30A6F
:10065000F31FD02AA0012016FF34A0017C1C312BEF
:10066000A121003F080003138312FB01FA01F901E5
:100670008030F800F10CF00C031C472B7408F907CC
:1006800075080318750FFA070318FB0A0310F01F0B
:100690004F2B7408FA0775080318750FFB07FB0C3E
:1006A000FA0CF90CF80C031C3A2B7B08F3007A08BF
:1006B000F2007908F1007808F000080003138312B3
:1006C000F801F9011030FC00710DF80DF90D7408F6
:1006D000F8027508031C750FF9020318762B7408CD
:1006E000F80775080318750FF9070310F00DF10DE1
:1006F000FC0B642B0800433003138312B10053300A
:10070000B2005430B3006530B4006330B5006830D7
:10071000B6002030B7003030B8003230B9002F308A
:10072000BA003130BB003230BC002F30BD00303059
:10073000BE003630BF00C001C1015630C2006F306C
:10074000C3006C30C4007430C5002030C60058307F
:10075000C7003A30C800C9015630CA006F30CB001C
:100760006C30CC007430CD002030CE005930CF003A
:100770003A30D000D1018B010630D200AF210C30CD
:10078000D70024200130D70024203130A3000130CD
:10079000D2000130D3002308D400EF214130A30060
:1007A0000230D2000130D3002308D400EF21803082
:1007B0008316810080309F00FF3085008701333031
:1007C000FC00FF30FB00FF30FA00FC0BE82BEF2BA6
:1007D000FB0BEB2BEE2BFA0BEB2BE82BE52BFD3079
:1007E000FB00FF30FA00FB0BF62BF92BFA0BF62B74
:1007F000F32BB530FA00FA0BFB2B0000013083120B
:10080000D70024204230A3004A30A400A501A6014D
:10081000A701A801A9013230290203183C2CD201FA
:1008200033220030F200F30083122508F007260877
:100830000318260FF10727080318270FF2072808C7
:100840000318280FF3077008A5007108A6007208A6
:10085000A7007308A8002130FB00FF30FA00FB0B53
:10086000322C352CFA0B322C2F2C6030FA00FA0B7C
:10087000372C0000A90A0B2C3C30F400F501F601DE
:10088000F7012508F0002608F1002708F2002808E3
:10089000F30099227008AA007108AB000230D20060
:1008A0000130D3002308D400EF212A08F0002B08E0
:1008B000F1008830F4001330F50033237008AC00E9
:1008C0007108AD00AE01AF017208AE007308AF0051
:1008D0000A30F4002C08F0002D08F1002E08F20078
:1008E0002F08F300740803197E2CF30CF20CF10CA2
:1008F000F00CF313731BF317FF3F732C7008AA005F
:100900007108AB00E830F4000330F5005E23700896
:10091000B0000230D2000930D3007008303FD4005C
:1009200061222E30D60062206430F4000030F500E1
:100930002A08F0002B08F1005E230A30F400003092
:10094000F5005E237808F0007908F1007008B00027
:100950007008303FD60062200A30F4000030F50005
:100960002A08F0002B08F1005E230A30F400003062
:10097000F5005E237808F0007908F1007008B000F7
:100980007008303FD60062200A30F4000030F500D5
:100990002A08F0002B08F1005E237808F00079089F
:1009A000F1007008B0007008303FD6006220563069
:1009B000D6006220A501A601A701A801A901323035
:1009C00029020318112D0130D20033220030F20029
:1009D000F30083122508F00726080318260FF107F5
:1009E00027080318270FF20728080318280FF30712
:1009F0007008A5007108A6007208A7007308A80077
:100A00002130FB00FF30FA00FB0B072D0A2DFA0BFB
:100A1000072D042D6030FA00FA0B0C2D0000A90AF6
:100A2000DF2C3C30F400F501F601F7012508F00059
:100A30002608F1002708F2002808F3009922700820
:100A4000AA007108AB000130D2000130D3002408A5
:100A5000D400EF212A08F0002B08F1008830F400C0
:100A60001330F50033237008AC007108AD00AE01FF
:100A7000AF017208AE007308AF000A30F4002C0812
:100A8000F0002D08F1002E08F2002F08F300740882
:100A90000319532DF30CF20CF10CF00CF313731B30
:100AA000F317FF3F482D7008AA007108AB00E8302B
:100AB000F4000330F5005E237008B0000130D2006E
:100AC0000930D3007008303FD40061222E30D600A8
:100AD00062206430F4000030F5002A08F0002B0892
:100AE000F1005E230A30F4000030F5005E23780840
:100AF000F0007908F1007008B0007008303FD600AF
:100B000062200A30F4000030F5002A08F0002B08BB
:100B1000F1005E230A30F4000030F5005E2378080F
:100B2000F0007908F1007008B0007008303FD6007E
:100B300062200A30F4000030F5002A08F0002B088B
:100B4000F1005E237808F0007908F1007008B00029
:100B50007008303FD60062205630D60062200B303D
:100B6000FC00FF30FB00FF30FA00FC0BB82DBF2D5E
:100B7000FB0BBB2DBE2DFA0BBB2DB82DB52D333085
:100B8000FB00FF30FA00FB0BC62DC92DFA0BC62D5A
:100B9000C32D8830FA00FA0BCB2D0000062CCF2D88
:02400E00FFFFB2
:00000001FF
