:10000000830100308A00042883016D2B8312A00035
:10001000A11B112821088A002008A00A0319A10A9F
:1000200082008313211883172008A00A8400000887
:1000300008004E3465347334733475346E342034B0
:1000400074346134733474346F34203470347234E3
:1000500065346D34753474346F3400345034723414
:1000600069346D346F342034703472346F346734D3
:10007000723461346D346D34613420344C34433423
:100080004434003420342A342034313430342F3492
:10009000333420343D340034763461346C346F347E
:1000A00072346534203461347334733465346734A6
:1000B0006E34613474346F343A34003474346134DF
:1000C000733474346F3420343234203470347234E6
:1000D00065346D34753474346F34203420342034F6
:1000E00020342034003474346134733474346F3405
:1000F0002034313420347034723465346D347534C6
:1001000074346F34203420342034203420340034CC
:1004A2008312940006168312752A83128D00061297
:1004B2008312752A0130831256220330682A83126E
:1004C20086169801980A980B642A861208008312ED
:1004D2008E0004308F0053309000900B6E2A8F0BE9
:1004E2006C2A8E0B6A2A0800831295008312C4229A
:1004F200950EF03095051508C42211309600960B22
:10050200802A0800831206168F2A0E08A1000D0801
:100512008D0A03198E0A0620831275220E08A10085
:100522000D080620003803190800862A9D019E0145
:1005320003109C0C9B0C031CA52A19089D071A0882
:1005420003181A0A9E070310990D9A0D1B081C0422
:1005520003190034992A83128D1FBE2A2D3083126B
:100562005122FF309B009C000C0899000D089A0054
:1005720097221D088C001E088D000C088D000D08A6
:100582008E0083121F2B83129700971FCA2A86158B
:10059200CB2A8611171FCF2A0615D02A0611971EBD
:1005A200D42A8614D52A8610171ED92A0614DA2AC6
:1005B20006108312602A83128C00EC2A0C087F3EFC
:1005C200EA2A0C08BF3EEA2A0C08933EEA2A0C08E3
:1005D200D33E8312562A83120C08013A0319DF2AEA
:1005E200033A0319E22A013A0319E52A073A031DDD
:1005F2000800E82A831206120F30831268220614BA
:10060200861406118611602205306822602221308C
:100612008D008D0B0A2B8312602205306822061092
:1006220060220D308D008D0B142B28308312752221
:10063200083075220C3075220630752A83128F011C
:1006420004309100332B1030920027302B2BE830EE
:10065200920003309300402B6430302B0A3092001A
:100662009301402B1108013A03192F2B033A031966
:100672002D2B013A0319282B073A0319242B1308AF
:100682009C0012089B000E089A000D089900C623D0
:100692001D0890008F08031990080319562B1008A3
:1006A200303E831251228F018F0A13089C001208D8
:1006B2009B00100899009A0197221D088D02031CC5
:1006C2008E031E088E029103013011020318332B90
:1006D2000D08303E8312512A831606108610061129
:1006E2008611061286120130850064308312682258
:1006F200FB22FA3068225B2243308C008C0B7F2B6A
:100702008030831256222E308D0000308E008322DC
:10071200C03056224C308D0000308E008322FA30D9
:100722008D008E011F2394305622FA308D008E01E7
:100732001F2342308D0000308E00832241308D0015
:1007420003308E001F23050BAE2BD43083125622AA
:1007520073308D0000308E0083220508023A031D9B
:10076200BA2BD430831256225E308D0000308E00B8
:1007720083220508031DA42BD4308312562219307C
:100782008D0000308E008322A42B9F019D019E01CB
:100792001B081C04031DD02B99019A0100341F3041
:1007A2009F0403109F0A9B0D9C0D031CD32B9C0CD2
:1007B2009B0C1C081A02031DE02B1B081902031CC8
:1007C200E82B1B0899021C08031C1C0A9A029D0DA7
:1007D2009E0D9F0B9F1AD82B9F1FF42B9D099D0ADC
:1007E20003199E039E091D089B001E089C001F1FE3
:0E07F20000349909990A03199A039A090034F0
:00000001FF
