:0C000000830100308A0004288301BC2B1F
:10074400831290000430910053309200920BA82B36
:10075400910BA62B900BA42B080083128E008F0103
:10076400B72BFF308312A2238F0A0F080E02031C3B
:100774000800B32B831686011830831286001430C8
:100784008312AF238C018D011C3086000230AF230D
:10079400183086000230AF238C0A03198D0A0D0825
:1007A400803A930080301302053003190C02031CB5
:1007B400C62B223086001430AF230230860001306D
:1007C400AF23223086000130AF230230860001308F
:1007D400AF23223086000130AF230230860001307F
:1007E400AF23223086000130AF230230860001306F
:0C07F400AF23223086000130AF23BE2B63
:00000001FF
