:10000000BB28FF3FFF3FFF3F180D930D940D1508D0
:1000100093021608031C160F9402970D980D0F30CB
:100020009900180D930D940D1508171C1D289302A7
:100030001608031C160F94022228930716080318AB
:10004000160F9407970D980D990B112817182E2845
:100050001508930716080318160F940700000800E8
:10006000013003138312AA000030AB000230AC0051
:100070000030AD000430AE000030AF000830B000FA
:100080000030B10001309A0000309B0003309C002A
:1000900000309D0002309E0000309F000630A0001E
:1000A0000030A1000430A2000030A3000C30A400F6
:1000B0000030A5000830A6000030A7000930A800D5
:1000C0000030A90008008C0194019301180817045E
:1000D00003190034180816068D008D1B8C098E013B
:1000E000961F772895099609950A0319960A981F6D
:1000F0007E2897099809970A0319980A1808160480
:100100008D008D1B932804200E18A6288C1F003408
:1001100097099809970A0319980A93099409930A69
:100120000319940A0034961FA228981B9E281808C9
:100130009400170893009801970186289801970169
:10014000970A0034980997098E0A8328930A03199D
:10015000940A15081302031D862816081402031DAD
:10016000862894019301970A0319980A981F8628F4
:100170000000FF340800302003138312850186013C
:100180000F30831685008601B401B5010313831671
:10019000CA286F2903138312C00140083502031DCA
:1001A000032901303407C000C1010318C10A04301B
:1001B00095009601400897004108980063201308B5
:1001C000C0001408C1004008B4002A30C000340840
:1001D000C0073408C007400884000008C100840A32
:1001E0000008C200410886000D30C000FF30C10089
:1001F000C00BFB28FE28C10BFB28F828F330C200F7
:10020000C20B00290000C001400835020319402933
:100210000130C00040083402C100C201031CC20307
:100220000130C01B0030C207043095009601410820
:1002300097004208980063201308C1001408C20008
:100240004108B4002A30C0003408C0073408C00791
:10025000400884000008C100840A0008C200410868
:1002600086000D30C000FF30C100C00B38293B298B
:10027000C10B38293529F330C200C20B3D290000DB
:100280000130C00040080502031D5729B501823026
:10029000C000FF30C100C00B4E295129C10B4E29AF
:1002A0004B298730C200C20B532900006E29083049
:1002B000C00040080502031D6E290130B5008230E0
:1002C000C000FF30C100C00B66296929C10B662937
:1002D00063298730C200C20B6B290000C6286F2932
:02400E00FD3F74
:00000001FF
