:100000009D29FF3FFF3FFF3F031383122230FC0077
:10001000F801F901FA01FB01FC0303193A28031066
:10002000FB0CFA0CF90CF80CF30CF20CF10CF00CC4
:10003000031C0C28FC0303192C287408F807750806
:100040000318750FF90776080318760FFA07770873
:100050000318770FFB0710287408F80775080318B2
:10006000750FF90776080318760FFA077708031853
:10007000770FFB070800243003138312FA00FA0BF2
:100080003F2800000800883003138312AA001330B1
:10009000AB00AC01AD010530F4002A08F0002B08DC
:1000A000F1002C08F2002D08F300740803195F28F2
:1000B000F30CF20CF10CF00CF313FF3F5628700810
:1000C000AA007108AB007208AC007308AD002808E4
:1000D000F4002908F500F601F70104207008AA00D1
:1000E0007108AB007208AC007308AD002A082B043D
:1000F0002C042D04031988280130AA02031CAB022A
:10010000031CAC02031CAD020000000000007628B6
:10011000080003138312F801F9011030FC00710D7F
:10012000F80DF90D7408F8027508031C750FF90233
:100130000318A1287408F80775080318750FF90744
:100140000310F00DF10DFC0B8F2808000313831230
:100150009F01C0309F0483161F179F178312240826
:10016000F000F00D7010F00D7010F00D70107008B0
:100170009F041F143B201F151F1DC0280000BC2812
:100180001F100830F2001E08F000F1017208031978
:10019000CE28F00DF10D7010FF3FC72883161E0802
:1001A000F0040030F104080000300313831225022C
:1001B000031DDC28643024020318EB280530F4000A
:1001C0000030F5002408F0002508F10089207008AF
:1001D000A6007108A70000302502031DF128643035
:1001E0002402031CFF282508003C031DF9282408CD
:1001F000C83C031CFF280F30A6000030A7000030C9
:100200002502031D0529C9302402031C13292508D2
:10021000013C031D0D2924082C3C031C1329143018
:10022000A6000030A70001302502031D19292D303A
:100230002402031C27292508013C031D2129240829
:10024000903C031C27291930A6000030A70001307C
:100250002502031D2D2991302402031C3B2925086A
:10026000013C031D35292408F43C031C3B291E30A6
:10027000A6000030A70001302502031D4129F530FA
:100280002402031C4F292508023C031D4929240888
:10029000583C031C4F292330A6000030A700023031
:1002A0002502031D552959302402031C6329250802
:1002B000023C031D5D292408BC3C031C6329283033
:1002C000A6000030A70002302502031D6929BD30B9
:1002D0002402031C77292508033C031D71292408E7
:1002E000203C031C77292D30A6000030A7000330E6
:1002F0002502031D7D2921302402031C8B2925089A
:10030000033C031D85292408843C031C8B293230BF
:10031000A6000030A70003302502031D9129853077
:100320002402031C97293730A6000030A7002608B6
:10033000A8002708A90043200800013003138312F6
:10034000A0000130A100A201A301803083169F000C
:10035000FF3083128500FF308316850083128601EB
:10036000F03083168600831287018316870183127B
:10037000A401A62070088312A2007108A300003017
:10038000061B0130F2007208003A031DD12900302B
:10039000861B0130F2007208003A031DD129A0012A
:1003A00087100030061B0130F2007208013A031D6D
:1003B000DC290130A00006140030861B0130F20059
:1003C0007208013A031DE7290130A0000610003031
:1003D000061A0130F2007208003A031DF9290030B4
:1003E000861A0130F2007208003A031DF929A101B2
:1003F00007110030061A0130F2007208013A031D9D
:10040000042A0130A10006150030861A0130F200DE
:100410007208013A031D0F2A0130A10006112008BD
:10042000013A0319172A2108013A031D3C2A200822
:10043000013A031D272A003087180130F2007209A3
:10044000F0000030701802300706023987062108D4
:10045000013A031D372A003007190130F2007209F2
:10046000F0000030701804300706043987062208AF
:10047000A4002308A500D420B7293D2AFF3FFF3F51
:02400E007A3FF7
:00000001FF
