:020000040000FA
:100000002828A301A200FF30A207031CA307031C9A
:1000100023280330A100DF300F200328A101E83E90
:10002000A000A109FC30031C1828A00703181528FC
:10003000A0076400A10F152820181E28A01C222844
:1000400000002228080083130313831264000800B1
:10005000831685019F0183129F01051085100511EC
:100060000512851205140730A300D03002200510B8
:100070000730A300D030022085140730A300D03011
:10008000022085100730A300D0300220051507306C
:10009000A300D030022005110730A300D030022089
:1000A00005160730A300D030022005120730A30048
:1000B000D030022085160730A300D03002208512F0
:0A00C0000730A300D03002203228E0
:02400E00EC3F85
:00000001FF
