:020000040000FA
:100000002B28A301A200FF30A207031CA307031C97
:1000100026280330A100E6300F200328A101FC3E72
:10002000A000A109031C1A28FF300000A007031834
:100030001528A0076400A10F142808000310A00DC4
:10004000A10DFF3E03181E28200826288313031342
:1000500083126400080083168501860187018801E8
:10006000890183120510851005118511851206106E
:1000700086100611861106128612061386130710C3
:1000800087100711871107128712071387130810AB
:100090008810081188110812881208138813091093
:1000A000891009110130B900B80164000430380228
:1000B0008A110A1203186A28390885000730A3003C
:1000C000D0308A0102200310B90DB80A8A110A1231
:1000D000031D5528851185160730A300D0308A01ED
:1000E000022085120730A300D0308A01022001309F
:1000F000B900B8016400083038028A110A120318E6
:100100008F28390886000730A300D0308A010220EA
:100110000310B90DB80A8A110A12031D7A28861332
:100120000730A300D0308A0102200130B900B801A5
:100130006400083038028A110A120318AD28390801
:1001400087000730A300D0308A0102200310B90DC8
:10015000B80A8A110A12031D982887130730A300D2
:10016000D0308A0102200130B900B80164000830A3
:1001700038028A110A120318CB2839088800073080
:10018000A300D0308A0102200310B90DB80A8A11E9
:100190000A12031DB62888130730A300D0308A0145
:1001A00002200130B900B8016400033038028A111E
:1001B0000A120318E928390889000730A300D03053
:1001C0008A0102200310B90DB80A8A110A12031D10
:1001D000D42809110730A300D0308A0102208A01F7
:0201E0005228A3
:02400E00753FFC
:00000001FF
