:020000040000FA
:100000002B28A301A200FF30A207031CA307031C97
:1000100026280330A100E6300F200328A101FC3E72
:10002000A000A109031C1A28FF300000A007031834
:100030001528A0076400A10F142808000310A00DC4
:10004000A10DFF3E03181E28200826288313031342
:1000500083126400080083168501860187018312DC
:1000600005108510051185118512061086100611E0
:1000700086110612861206138613071087100711C1
:10008000871107128712071387130130B900B801CF
:100090006400043038028A110A1203185D283908F6
:1000A00085000730A300D0308A0102200310B90D6B
:1000B000B80A8A110A12031D4828851185160730CF
:1000C000A300D0308A01022085120730A300D0306F
:1000D0008A0102200130B900B801640008303802FA
:1000E0008A110A1203188228390886000730A300F3
:1000F000D0308A0102200310B90DB80A8A110A1201
:10010000031D6D2886130730A300D0308A0102201A
:100110000130B900B8016400083038028A110A12AF
:100120000318A028390887000730A300D0308A01BF
:1001300002200310B90DB80A8A110A12031D8B2878
:1001400087130730A300D0308A0102208A01452896
:02400E00753FFC
:00000001FF
