:020000040000FA
:100000002B288F018E00FF308E07031C8F07031CE7
:10001000262803308D00E6300F2003288D01FC3E9A
:100020008C008D09031C1A28FF3000008C07031870
:1000300015288C0764008D0F1428080003108C0D00
:100040008D0DFF3E03181E280C082628831303136A
:10005000831264000800831685018601831205104F
:1000600085100511851106108610061186110612DD
:100070008612061386130130A500A4016400043023
:10008000240203184D282508850007308F00D03042
:1000900002200310A50DA40F3E28851107308F0004
:1000A000D03002200130A500A401640008302402F1
:1000B000031864282508860007308F00D0300220FE
:1000C0000310A50DA40F5528861307308F00D030DC
:0400D00002203B28A7
:02400E00F53F7C
:00000001FF
