:10000000BB28FF3FFF3FFF3F180D930D940D1508D0
:1000100093021608031C160F9402970D980D0F30CB
:100020009900180D930D940D1508171C1D289302A7
:100030001608031C160F94022228930716080318AB
:10004000160F9407970D980D990B112817182E2845
:100050001508930716080318160F940700000800E8
:10006000013003138312AA000030AB000230AC0051
:100070000030AD000430AE000030AF000830B000FA
:100080000030B10001309A0000309B0003309C002A
:1000900000309D0002309E0000309F000630A0001E
:1000A0000030A1000430A2000030A3000C30A400F6
:1000B0000030A5000830A6000030A7000930A800D5
:1000C0000030A90008008C0194019301180817045E
:1000D00003190034180816068D008D1B8C098E013B
:1000E000961F772895099609950A0319960A981F6D
:1000F0007E2897099809970A0319980A1808160480
:100100008D008D1B932804200E18A6288C1F003408
:1001100097099809970A0319980A93099409930A69
:100120000319940A0034961FA228981B9E281808C9
:100130009400170893009801970186289801970169
:10014000970A0034980997098E0A8328930A03199D
:10015000940A15081302031D862816081402031DAD
:10016000862894019301970A0319980A981F8628F4
:100170000000FF340800302003138312850186013C
:100180000F30831685008601B401B5010313831671
:10019000CA28D129013003138312C0004008050288
:1001A000031D0A2901303507C000C101FF30B51B0E
:1001B0000030C1070318C10A0430950096014008B9
:1001C00097004108980063201308C0001408C1007C
:1001D0004008B5002A30C0003508C0073508C00700
:1001E000400884000008C100840A0008C2004108D9
:1001F00086000630C000FF30C100C00B0029032973
:10020000C10B0029FD282C30C200C20B05290000BB
:100210000000CA280230C00040080502031D48291A
:1002200001303407C000C101FF30B41B0030C107EA
:100230000318C10A0830950096014008970041084C
:10024000980063201308C0001408C1004008B400DF
:100250001A30C0003408C0073408C00740088400C2
:100260000008C100840A0008C20041088600063068
:10027000C000FF30C100C00B3E294129C10B3E29FF
:100280003B292C30C200C20B4329000000000A2980
:100290000430C00040080502031D8C290130C00055
:1002A00040083402C100C201031CC203FF30B41B6A
:1002B0000030C2070130C01B0030C2070830950073
:1002C0009601410897004208980063201308C10076
:1002D0001408C2004108B4001A30C0003408C00736
:1002E0003408C007400884000008C100840A0008E0
:1002F000C200410886000630C000FF30C100C00BBC
:1003000082298529C10B82297F292C30C200C20B8A
:1003100087290000000048290830C0004008050275
:10032000031DD0290130C00040083502C100C201C0
:10033000031CC203FF30B51B0030C2070130C01BD5
:100340000030C2070430950096014108970042082A
:10035000980063201308C1001408C2004108B500CA
:100360002A30C0003508C0073508C007400884009F
:100370000008C100840A0008C20041088600063057
:10038000C000FF30C100C00BC629C929C10BC62956
:10039000C3292C30C200C20BCB29000000008C29DD
:1003A000C628D129FF3FFF3FFF3FFF3FFF3FFF3FF1
:00000001FF
