:10000000830100308A00042883010730BE00EC30F1
:10001000BD00293084003D30112083010A128A116D
:10002000942FF0000A128A1121200A128A118000EE
:10003000840A04087006031900341228831203137B
:10004000BD00BE1B2C283E1B34283E088A003D08FC
:10005000BD0A0319BE0A820083133E1883173D08A8
:08006000BD0A8400000808003D
:100F0E008301A6000430A7005330A800A80B8D2F34
:100F1E00A70B8B2FA60B892F0800831203138601B4
:100F2E008316860183128501831685018312A4011F
:100F3E00A501A201A301A001A101A001A1010430FC
:100F4E00850024082407293E840083130008FF3CF3
:100F5E008600013087270830850022082207293EA7
:100F6E00840083130008FF3C860001308727A00A07
:100F7E000319A10A2108803AF00080307002323045
:100F8E0003192002031CA62FA40A0319A50A25087B
:100F9E00803AF000803070020A3003192402031CDC
:100FAE00DD2FA401A501A20A0319A30A2308803A82
:100FBE00F000803070020A3003192202031CA42FA5
:100FCE00A401A501A201A301A42F3F3400340634CD
:100FDE0000345B3400344F340034663400346D34E6
:100FEE0000347D340034073400347F3400346F34E1
:020FFE000034BD
:00000001FF
