:100000002829FF3FFF3FFF3F013003138312FA000F
:10001000FA0B082800000800243003138312FB00A9
:10002000FF30FA00FB0B15281828FA0B15281228A8
:100030009E30FA00FA0B1A2808005330031383127B
:10004000FA00FA0B21280800031383122008840009
:10005000430803192B28801180130013801200120B
:100060000011C31B8017431B0017C31A8016431AC5
:100070000016210803193E2800113F28001580159D
:1000800004204308031944288011801300138012B0
:1000900000120011C319801743190017C3188016E6
:1000A0004318001621080319572800115828001575
:1000B0008015042080112108031960280C20612874
:1000C0001D20080003138312A1014208C30024204D
:1000D0000130A10008000C200C200C203E08A000DC
:1000E0003E08840080018417800184138016001666
:1000F000801580110C20801580110C208015801136
:100100000C2080160012801580110C2080018016B2
:100110008015801180018017801580110C208001CE
:100120000016801580118001801580110C2080013F
:10013000801580110016801580110C20800180151B
:1001400080110016801600178017801580110C2072
:100150000130A1000800031383123E080319B028E0
:10016000C0288030BE00D128C030BE00D1289430D5
:10017000BE00D128D430BE00D1288030BE00D128A6
:100180003E08013A0319B1283E08023A0319B4287F
:100190003E08033A0319B7283E08043A0319BA285F
:1001A000BD283F03F0003E08F0077008BE0070084D
:1001B000C3002420A101C1014108400784000008B8
:1001C000F00070080319EC2841084007840000087B
:1001D000C2006220C10ADC280130A10008004130C1
:1001E00003138312A2004230A3004330A400443022
:1001F000A5004530A6004630A7004730A80048308B
:10020000A9004930AA004C30AB004D30AC004E3054
:10021000AD00AE012230BC004F30AF005030B00016
:100220005130B1005230B2005330B3005430B400FA
:100230005530B5005630B6005730B7005830B800CA
:100240005930B9005A30BA00BB012F30BD00080048
:10025000EF200630BE006B200130C30024200C309C
:10026000C30024200130BE000130BF003C08C000A4
:10027000AB200230BE000130BF003D08C000AB2003
:1002800040294129FF3FFF3FFF3FFF3FFF3FFF3F27
:02400E007A3FF7
:00000001FF
