:04000000B9EF08F05C
:020008001100E5
:0A000A00530E0D6E0D2EFED71200EE
:10001400240E0C6EB50E0D6E0D2EFED70C2EFCD7D5
:06002400000000001200C4
:0C002A00000000000000000000001200B8
:1000360000017ABF02D08C9E01D08C8E7ABD02D090
:100046008C9C01D08C8C7ABB02D08C9A01D08C8A85
:100056007AB902D08C9801D08C8831B002D08C84C9
:1000660001D08C948C86DEDF8C967AB702D08C9E7B
:1000760001D08C8E7AB502D08C9C01D08C8C7AB350
:1000860002D08C9A01D08C8A7AB102D08C9801D099
:100096008C8831B002D08C8401D08C948C86C2DFDF
:0E00A6008C9631A002D0B3DF01D0ACDF120087
:1000B400086A096A100E0C6E0134083609360450B9
:1000C400085E0550D8A0053C095ED8B007D004509E
:1000D40008260550D8B0053C0926D89000360136CC
:0600E4000C2EEAD7120009
:1000EA002BA461D02BA213D02BA003D02D0E006E0F
:1000FA0002D02B0E006E77C0E1FF78C0E2FF00C08D
:10010A00E6FF0001774B782B294A2A2A36D02BA002
:10011A000CD0000177C0E1FF78C0E2FF200EE66E46
:10012A00774B782B294A2A2A28D0C00E2B14016E25
:10013A002C50080B026E0250080A02E1800E0118C8
:10014A001CE1000177C0E1FF78C0E2FF300EE66EE5
:10015A00774B782B294A2A2A2BAA03D0580E006EED
:10016A0002D0780E006E77C0E1FF78C0E2FF00C0CF
:10017A00E6FF774B782B294A2A2A2F50301012E0B3
:10018A00000177C0E1FF78C0E2FF300EE66E774BE0
:10019A00782B294A2A2A010E2F5E000E305A2F5038
:1001AA003010EEE179D02F50301014E02BB612D077
:1001BA00000177C0E1FF78C0E2FF200EE66E774BC0
:1001CA00782B294A2A2A010E2F5E000E305A2F5008
:1001DA003010EEE12BA213D02BA003D02D0E006E0F
:1001EA0002D02B0E006E000177C0E1FF78C0E2FF5B
:1001FA0000C0E6FF774B782B294A2A2A0DD02BA07C
:10020A000BD0000177C0E1FF78C0E2FF200EE66E56
:10021A00774B782B294A2A2AC00E2B14016E2C50B0
:10022A00080B026E0250080A02E1400E01180CE1A6
:10023A00000177C0E1FF78C0E2FF300EE66E774B2F
:10024A00782B294A2A2A28D0C00E2B14016E2C504A
:10025A00080B026E0250080A02E1800E01181CE126
:10026A00000177C0E1FF78C0E2FF300EE66E774BFF
:10027A00782B294A2A2A2BAA03D0580E006E02D0BC
:10028A00780E006E77C0E1FF78C0E2FF00C0E6FF9B
:10029A00774B782B294A2A2A800E006E800E2E1858
:1002AA00005C02E12D50205C0CE2000177C0E1FF06
:1002BA0078C0E2FF300EE66E774B782B294A2A2A5D
:0C02CA00EBD777C000F078C001F0120004
:0C02D600319077C07AF0ACDE318012006D
:1002E20000017751390806E3300E775D03E3010E12
:0802F200006E01D0006A120049
:1002FA000B6A0A6A096A00500402F4CF09F0F3CFC4
:10030A0008F001500502F4CF0BF0F3CF0AF00050C9
:10031A000502F3500926F4500A22E86A0B2201501A
:10032A000402F3500926F4500A22E86A0B2208C094
:10033A0000F009C001F00AC002F00BC003F012007D
:10034A0028D02B86010E00017727000E7823792307
:10035A005DD000012B80010E7727000E78237923C8
:10036A0055D000012B82010E7727000E78237923BE
:10037A004DD000012C86010E7727000E78237923B1
:10038A0045D000012B84010E7727000E78237923AC
:10039A003DD077C0F6FF78C0F7FF79C0F8FF0900B3
:1003AA00F5CF01F001502D0ACCE077C0F6FF78C0F6
:1003BA00F7FF79C0F8FF0900F5CF01F00150200AD4
:1003CA00C8E077C0F6FF78C0F7FF79C0F8FF0900E8
:1003DA00F5CF01F001502B0AC4E077C0F6FF78C0D0
:1003EA00F7FF79C0F8FF0900F5CF01F00150230AA1
:1003FA00C0E077C0F6FF78C0F7FF79C0F8FF0900C0
:10040A00F5CF01F00150300ABCE001D099D72BB2E8
:10041A002B902BB62B9477C000F078C001F079C0EE
:04042A0002F01200CA
:10042E00296A2A6A2B6A2C6A6DC000F06EC001F030
:10043E006FC002F0010E00016D27000E6E236F23B8
:10044E0000C0F6FF01C0F7FF02C0F8FF0900F5CFAC
:10045E0000F000C020F00052D8B40DEF07F020508D
:10046E00250A0BE06BC0E1FF6CC0E2FF20C0E6FF87
:10047E006B4B6C2B294A2A2AD7D72F6A306A2B6AE4
:10048E002C6A6DC077F06EC078F06FC079F056DFD1
:10049E0000C06DF001C06EF002C06FF000C0F6FF3C
:1004AE0001C0F7FF02C0F8FF0900F5CF00F0000E03
:1004BE00016E00C077F00EDF005234E02F6A306A12
:1004CE002FC000F030C001F00A0E046E000E056E53
:1004DE000DDF6DC0F6FF6EC0F7FF6FC0F8FF0900AD
:1004EE00F5CF02F0025000242F6E000E0120306E68
:1004FE00300E2F5E000E305A010E6D27000E6E2349
:10050E006F236DC0F6FF6EC0F7FF6FC0F8FF0900D6
:10051E00F5CF00F0000E016E00C077F0DBDE00526A
:10052E00CFE133D06DC0F6FF6EC0F7FF6FC0F8FF9E
:10053E000900F5CF01F001502A0A27E170C0E9FF4A
:10054E0071C0EAFFEECF00F0EECF01F000C0E9FF80
:10055E0001C0EAFFEECF2FF0EECF30F070C0E9FF12
:10056E0071C0EAFF020EEE24006E000EEE20016E48
:10057E0070C0E1FF71C0E2FF00C0E6FF01C0E6FF00
:10058E00010E6D27000E6E236F236DC0F6FF6EC039
:10059E00F7FF6FC0F8FF0900F5CF01F001502E0AEA
:1005AE006EE1010E6D27000E6E236F236DC0F6FFF8
:1005BE006EC0F7FF6FC0F8FF0900F5CF01F00150D4
:1005CE002A0A28E170C0E9FF71C0EAFFEECF00F001
:1005DE00EECF01F000C0E9FF01C0EAFFEECF2DF033
:1005EE00EECF2EF070C0E9FF71C0EAFF020EEE24CE
:1005FE00006E000EEE20016E70C0E1FF71C0E2FFD2
:10060E0000C0E6FF01C0E6FF010E6D27000E6E234F
:10061E006F2334D02D6A2E6A6DC0F6FF6EC0F7FFC1
:10062E006FC0F8FF0900F5CF00F0000E016E00C09C
:10063E0077F050DE005222E02DC000F02EC001F007
:10064E000A0E046E000E056E51DE6DC0F6FF6EC012
:10065E00F7FF6FC0F8FF0900F5CF02F0025000243B
:10066E002D6E000E01202E6E300E2D5E000E2E5AB7
:10067E00010E6D27000E6E236F23CED702D02D6A8A
:10068E002E6A6DC000F06EC001F06FC002F0010E58
:10069E006D27000E6E236F2300C0F6FF01C0F7FF1B
:1006AE0002C0F8FF0900F5CF20F0EFD029C000F00E
:1006BE002AC001F0AFD32B8C17D116D12B8A2B8EDB
:1006CE0013D170C0E9FF71C0EAFFEECF00F0EECF9C
:1006DE0001F000C0E9FF01C0EAFFEECF72F0EECFED
:1006EE0073F070C0E9FF71C0EAFF020EEE24006ED7
:1006FE00000EEE20016E70C0E1FF71C0E2FF00C07F
:10070E00E6FF01C0E6FF000E731902E1000E72193A
:10071E0004E1150E726F000E736F746B756B74516E
:10072E007225E96E75517321EA6EEE520BE0010EE1
:10073E007425006E000E7521016E00C074F001C0AC
:10074E0075F0EDD72D502E100AE075512E5C02E19A
:10075E0074512D5C04E22DC074F02EC075F0305033
:10076E00755D02E12F50745D05E274512F5E755177
:10077E00305A02D02F6A306A2BB616D02FC000F036
:10078E0030C001F0010E2F5E000E305A00500110E5
:10079E000BE06BC0E1FF6CC0E2FF200EE66E6B4B10
:1007AE006C2B294A2A2AEAD774C002F075C003F0CE
:1007BE00010E745D006E000E7559016E00C074F06E
:1007CE0001C075F00250031019E072C0E9FF73C04A
:1007DE00EAFF6BC0E1FF6CC0E2FFEECFE6FF6B4BB2
:1007EE006C2B010E7225006E000E7321016E00C07F
:1007FE0072F001C073F0294A2A2AD6D72BA616D03A
:10080E002FC000F030C001F0010E2F5E000E305AE6
:10081E00005001100BE06BC0E1FF6CC0E2FF200E38
:10082E00E66E6B4B6C2B294A2A2AEAD7FDD570C08F
:10083E00E9FF71C0EAFFEECF00F0EECF01F000C08D
:10084E00E9FF01C0EAFFEECF20F070C0E9FF71C0F2
:10085E00EAFF020EEE24006E000EEE20016E70C056
:10086E00E1FF71C0E2FF00C0E6FF01C0E6FF200E0F
:10087E00726F000E736F010E746F000E756F62D77C
:10088E00C00E2B12000E2C122FD02050000AD8B4FE
:10089E000DD720506C0AD8B40ED720504C0AD8B4BD
:1008AE000AD720506F0AD8B406D72050640AD8B49D
:1008BE0004D72050690AD8B400D72050700AD8B493
:1008CE00FDD62050580AD8B4F9D62050780AD8B49C
:1008DE00F6D62050730AD8B4F4D62050630AA7E097
:1008EE002050750ACDE0C3D7C00E2B14016E2CC05C
:1008FE0002F0000E0216000E021802E1000E0118A0
:10090E003BE170C0E9FF71C0EAFFEECF00F0EECF21
:10091E0001F000C0E9FF01C0EAFFEECF72F0EECFAA
:10092E0073F070C0E9FF71C0EAFF020EEE24006E94
:10093E00000EEE20016E70C0E1FF71C0E2FF00C03C
:10094E00E6FF01C0E6FF800E7319006E800E005C9C
:10095E0002E1000E725D0FE2030E2B12000E2C123E
:10096E0072510008006E73C001F0000E015600C0F7
:10097E0072F001C073F022D070C0E9FF71C0EAFFBF
:10098E00EECF00F0EECF01F000C0E9FF01C0EAFFAC
:10099E00EECF72F0EECF73F070C0E9FF71C0EAFFD8
:1009AE00020EEE24006E000EEE20016E70C0E1FF0E
:1009BE0071C0E2FF00C0E6FF01C0E6FF000E2E1878
:1009CE0002E1000E2D1808E1000E731902E1000E6F
:1009DE00721902E12D4A2E2AC00E2B14006E00C091
:1009EE0005F07ED0010E206E2050050A24E0000195
:1009FE0020C000F0000E016E026E036E00360090F5
:100A0E00013602360336290E0024F66E130E01202F
:100A1E00F76E000E0220F86E0900F5CF01F0090006
:100A2E00F5CF02F00250735D02E10150725D01E2FA
:100A3E0002D0202AD9D762D0010E206E2050040A8F
:100A4E0024E0000120C000F0000E016E026E036E65
:100A5E0000360090013602360336330E0024F66E51
:100A6E00130E0120F76E000E0220F86E0900F5CF6E
:100A7E0001F00900F5CF02F00250735D02E1015062
:100A8E00725D01E202D0202AD9D738D0010E206E35
:100A9E002050060A24E0000120C000F0000E016E76
:100AAE00026E036E00360090013602360336080ED3
:100ABE000024F66E130E0120F76E000E0220F86E63
:100ACE000900F5CF01F00900F5CF02F00250735D79
:100ADE0002E10150725D01E202D0202AD9D70ED078
:100AEE000550000AD8B47ED70550C00AD8B47AD7BC
:100AFE000550800AA1E00550400AC8E0800E006E45
:100B0E00800E2E18005C02E12D50205C03E22DC0F9
:100B1E0020F00DD0800E2E18006E800E005C02E1CB
:100B2E0020502D5C04E220C02DF0000E2E6E2F50B2
:100B3E0030100EE0030E2B14006E2CC001F0000ED0
:100B4E0001160050011004E0010E2F5E000E305A07
:100B5E00800E2E18006E800E3018005C02E12F50B1
:100B6E002D5C05E22D502F5E2E50305A02D02F6A8A
:100B7E00306AC40E2B14016E2C50080B026E0250FC
:100B8E00080A02E1400E011808E12F50301004E06F
:100B9E00010E2F5E000E305A1CD0C00E2B14016EAB
:100BAE002C50080B026E0250080A02E1800E01184A
:100BBE0010E1800E006E800E3018005C02E12F50A6
:100BCE00020805E2020E2F5E000E305A02D02F6A86
:100BDE00306A6BC077F06CC078F075EC00F000C036
:100BEE006BF001C06CF02DC000F02EC001F0010EB4
:100BFE002D5E000E2E5A00500110D8B4E8D0C00E53
:100C0E002B14006E00C076F0C6D02DC000F02EC0A2
:100C1E0001F0000E2EBEFF0E026E036E0036009027
:100C2E00013602360336290E0024F66E130E01200D
:100C3E00F76E000E0220F86E0900F5CF04F00900E1
:100C4E00F5CF05F072C000F073C001F05AEC00F061
:100C5E000A0E046E000E056E5AEC00F008C000F08D
:100C6E0009C001F0300E0024206EA5D02BAA35D07D
:100C7E002DC000F02EC001F0000E2EBEFF0E026E33
:100C8E00036E00360090013602360336330E002412
:100C9E00F66E130E0120F76E000E0220F86E09009C
:100CAE00F5CF04F00900F5CF05F072C000F073C067
:100CBE0001F05AEC00F00F0E0016000E0116DB0EBE
:100CCE000024F66E120E0120F76E000EF86E000E66
:100CDE00F8220900F5CF20F034D02DC000F02EC040
:100CEE0001F0000E2EBEFF0E026E036E0036009057
:100CFE00013602360336330E0024F66E130E012033
:100D0E00F76E000E0220F86E0900F5CF04F0090010
:100D1E00F5CF05F072C000F073C001F05AEC00F090
:100D2E000F0E0016000E0116CA0E0024F66E120EDD
:100D3E000120F76E000EF86E000EF8220900F5CFB6
:100D4E0020F039D02DC000F02EC001F0000E2EBEC6
:100D5E00FF0E026E036E0036009001360236033629
:100D6E00080E0024F66E130E0120F76E000E022000
:100D7E00F86E0900F5CF04F00900F5CF05F072C04A
:100D8E0000F073C001F05AEC00F0070E0014206E54
:100D9E00300E202610D000017651000AD8B435D777
:100DAE007651C00AD8B431D77651800AD8B45ED7FE
:100DBE007651400AC7E000016BC0E1FF6CC0E2FF54
:100DCE0020C0E6FF6B4B6C2B294A2A2A0CD72BA688
:100DDE001BD0800E006E800E3018005C02E12F508A
:100DEE00000812E200016BC0E1FF6CC0E2FF200EB2
:100DFE00E66E6B4B6C2B294A2A2A010E2F5E000ED3
:100E0E00305A2F503010EEE11BEF02F029C000F0E7
:060E1E002AC001F01200E1
:0E0E2400ACB202D00000FCD76BC0ADFF1200D4
:100E320010D0800E00016B6F1AD0C00E6B6F17D0EE
:100E4200940E6B6F14D0D40E6B6F11D0800E6B6F3B
:100E52000ED000016B51010AECE06B51020AEDE089
:100E62006B51030AEDE06B51040AEDE0EFD76C051C
:100E7200006E6B51002600C06BF000C07AF01BECD4
:100E820000F031906F6B6F516D25E96E000E6E218F
:100E9200EA6EEE520CE06F516D25E96E000E6E2186
:100EA200EA6EEECF77F06BEC01F06F2BECD731806E
:020EB20012002C
:100EB4000900F5CFE6FF0006FBE10106F9E11200A7
:100EC400550E596E000E5A6E50C06BF051C06CF046
:100ED40052C06DF053C06EF054C06FF0590E000153
:100EE400706F000E716F17EC02F000C057F001C074
:100EF40058F000505024E16E01505120E26EE66A31
:0A0F040057C000F058C001F01200C1
:100F0E00F26A9D6AA06A9E6AA16A9F6AA26A070E29
:100F1E00B412C26A0F0EC16EFF0E926EFF0E936E6A
:0E0F2E00FF0E946EFF0E956EFF0E966E120073
:0A0F3C00000E9EBA010E006E1200B6
:100F4600536A50C0E9FF51C0EAFFEECF52F052504B
:100F5600000A0DE052C06BF062DF532A5350502452
:100F6600E96E000E5120EA6EEECF52F0F0D7120075
:100F76000FD0800E506E19D0C00E506E16D0940E43
:100F8600506E13D0D40E506E10D0800E506E0DD011
:100F96005050010AEEE05050020AEEE05050030AAB
:100FA600EEE05050040AEEE0F0D75104006E5050C7
:100FB600002600C050F0318000C07AF01BEC00F033
:0E0FC600319052C07AF01BEC00F03180120026
:100FD400AECF01F0ABA202D0AB98AB8801C000F059
:020FE4001200F9
:100FE600959695949598959A959C959E8C968C94A5
:100FF6008C9E8C9C8C9A8C980AEC00F00AEC00F083
:101006000AEC00F08C8A8C888C8615EC00F08C96A5
:101016000AEC00F08C8615EC00F08C960AEC00F0D9
:101026008C8615EC00F08C960AEC00F08C988C8679
:1010360015EC00F08C960AEC00F08C8615EC00F0AE
:101046008C968C9A8C8E8C8615EC00F08C960AEC1D
:1010560000F08C9E8C888C8615EC00F08C968C9813
:101066008C8615EC00F08C960AEC00F08C8615EC5C
:1010760000F08C968C888C8615EC00F08C960AEC29
:1010860000F08C988C8615EC00F08C968C8E8C8CEF
:101096008C8A8C888C8615EC00F08C960AEC00F015
:0410A6003180120083
:0610AA00030E956E12001A
:1010B000240E256E0E0E266E6B0E276E000E286E09
:1010C000D40E216E0F0E226E000E236E000E246EC3
:1010D0003C0E326E0F0E336E000E346E000E356E07
:1010E000FF0E366EFF0E376E000E386E000E396E34
:1010F000AC8A900EAB6E948E949C9EAA03D0AECF19
:0611000000F0FBD7120015
:10110600550E0001696F000E6A6F69C003F06AC070
:1011160004F0694B6A2B52C000F053C001F054C072
:1011260002F0010E5226000E5322542200C0F6FF92
:1011360001C0F7FF02C0F8FF0900F5CF00F003C0B9
:10114600E1FF04C0E2FF00C0E6FF03C0E9FF04C000
:10115600EAFFEE5201E0D9D750C06BF051C06CF0F7
:0C116600550E6D6F000E6E6F61DE120002
:10117200A0EC09F0CBDE98DF410E0C6EEE0E0D6E88
:101182000D2EFED70C2EFCD700002CDF010E000125
:101192007A6F1BEC00F00C0E7A6F1BEC00F0010E64
:1011A200506E010E516EEC0E526E120E536E000E08
:1011B200546EA8DF020E506E010E516EFC0E526E7E
:1011C200120E536E000E546E9DDF4D0E0B6E190EF5
:1011D2000C6E4F0E0D6E0D2EFED70C2EFCD70B2E65
:1011E200FAD700000000010E7A6F1BEC00F0B886FF
:1011F200B06A2A0EAF6EAC845ADF030E0B6E8A0EF3
:101202000C6E550E0D6E0D2EFED70C2EFCD70B2E2E
:10121200FAD7000000001A0E506E000E516E92DED8
:101222000A0E00016B6FFDDD0D0E00016B6FF9DD23
:10123200010E3A6E010E3B6E80DE005243E0C9DEC3
:101242003BC050F03AC051F000C052F093DE3C0E69
:10125200506E000E516E3B0E526E130E536E000E08
:10126200546E3AC055F0000E566E2BDE3C0E506E98
:10127200000E516E67DE3C0E506E000E516E1F0E58
:10128200526E130E536E000E546E3BC055F0000E9C
:10129200566E17DE3C0E506E000E516E53DE3A2A29
:1012A2003A50110A0FE1010E3A6E3B2A3B50030AF3
:1012B20009E1010E3A6E010E3B6E010E00017A6FDA
:0812C2001BEC00F0B9D7FFD7C7
:1013400010EE15F00B0E006E010E016E140EF66E0F
:0E135000130EF76E000EF86E5AEC07F0120046
:1012CA0030313233343536373839616263646566B2
:0112DA000013
:1012DB003031323334353637383941424344454661
:0112EB000002
:1012EC004361706F72616C652053696D6F6E650040
:0C12FC00417072696C65203230313300A3
:0C130800010008004000000200100080FE
:051314006E756C6C0019
:06131900537461727400C0
:0A131F00202D20593D25640D0A0021
:0A13290001000A006400E803102729
:08133300010010000001001090
:05133B00583D2564008F
:020000040030CA
:0E000000040C191EFF8381FF0FC00FE00F409C
:00000001FF
