:10000000EE29FF3FFF3FFF3FCF00030E8301950026
:10001000040894000A0896008A018C0A03198D0AC4
:100020006030810020308B0016088A00140884009C
:10003000150E8300CF0E4F0E090003138312410DDE
:10004000C80DC90D4408C8024508031C450FC90264
:10005000C00DC10D0F30CC00410DC80DC90D4408B5
:10006000401C3828C8024508031C450FC9023D281A
:10007000C80745080318450FC907C00DC10DCC0BB3
:100080002C28401849284408C80745080318450F7C
:10009000C90700000800031383122408890083168F
:1000A0008813081483120808C00008000313831281
:1000B000C801C9011030CC00410DC80DC90D44085C
:1000C000C8024508031C450FC90203186E284408DE
:1000D000C80745080318450FC9070310C00DC10D17
:1000E000CC0B5C280800000003138316881C7A28B8
:1000F00000007428240883128900250888008316CC
:10010000881308158B1355308900AA30890088148C
:100110008B170811080003138312CD01C901C80110
:10012000410840040319003441084506CA00CA1BAF
:10013000CD09CB01C51FA128C409C509C40A0319EB
:10014000C50AC11FA828C009C109C00A0319C10AEC
:1001500041084504CA00CA1BBD281D204B18D028E1
:10016000CD1F0034C009C109C00A0319C10AC8095A
:10017000C909C80A0319C90A0034C51FCC28C11B04
:10018000C8284108C9004008C800C101C001B02802
:10019000C101C001C00A0034C109C009CB0AAD28A1
:1001A000C80A0319C90A44084802031DB0284508B3
:1001B0004902031DB028C901C801C00A0319C10AB8
:1001C000C11FB0280000FF3408000313831286010A
:1001D0008501FF30831685008601843081008C0103
:1001E0008D016030831281000800013003138312F7
:1001F000A4004B2040089F00A0010230CC00FF303B
:10020000CB00FF30CA00CC0B06290D29CB0B0929E6
:100210000C29CA0B0929062903294630CB00FF30D7
:10022000CA00CB0B14291729CA0B14291129CF3066
:10023000CA00CA0B192900000330A4004B20400853
:10024000C100C0011F08C00720080318013FC107F3
:1002500040089F004108A0000800031383121F08F4
:10026000013A031D362980308E0037298E0108009F
:10027000031383121F08013A031D4129A0308B008C
:1002800042298B010800803003138312C0008030A4
:1002900010064002031D4E290F08003C0318872951
:1002A0003C30C4000030C5000F08C0001008C10079
:1002B00056204008A1003C30C4000030C5000F08A3
:1002C000C0001008C10056204808C0004908C100FD
:1002D0004008A2004108A3000A30C4000030C50055
:1002E0002208C0002308C10056204008A0000A30A0
:1002F000C4000030C5002208C0002308C1005620F9
:100300004808C0004908C10040089F008A29A1018F
:10031000A0019F01A6291F08860010300607C00013
:100320000E0840078600B229200886002030060704
:10033000C0000E0840078600B22921088600403020
:100340000607C0000E0840078600B2291108003ACF
:1003500003198B291108013A031994291108023A4B
:1003600003199D29910A03301102031CB829910138
:100370000800013003138312A400FF301F05A500FD
:1003800073200230CC00FF30CB00FF30CA00CC0B12
:10039000CA29D129CB0BCD29D029CA0BCD29CA29ED
:1003A000C7294630CB00FF30CA00CB0BD829DB2948
:1003B000CA0BD829D529CF30CA00CA0BDD290000C5
:1003C0000330A400FF30C400C5011F08C00020088E
:1003D000C1008B204008A50073200800E520C33031
:1003E00097009801F52040089200410893000230E0
:1003F0004102031DFD2949304002031C032A1E301F
:1004000092000030930012088F00130890009F01A3
:100410002D2101309F003821031383124321013025
:100420000505C2004208013A031D7C2A013005057A
:10043000C2004208013A031D1F2A4321162A12084E
:100440008F001308900001309F002D2101309F0084
:1004500038218030C000803010064002031D322A4F
:100460000F08003C0318652A432118080D02031DDC
:100470003B2A17080C02031C432A01308F02031C7D
:1004800090038C018D0101300505C2004208013A3C
:10049000031D642A03301202C2000030031C013F16
:1004A0001302C30043081002031D582A42080F021A
:1004B0000318642A01300505C2004208013A031DF1
:1004C000632A43215A2A652A292A9F012D219F0147
:1004D000382112088F00130890008230CB00FF30C3
:1004E000CA00CB0B742A772ACA0B742A712A873068
:1004F000CA00CA0B792A0000003085180130C200FA
:100500004208013A031D772B003085180130C200E4
:100510004208013A031D8E2A4321842A12088F00C3
:10052000130890000313831243210D30CB00FF30DA
:10053000CA00CB0B9C2A9F2ACA0B9C2A992AF3300B
:10054000CA00CA0BA12A00009D019E0100300519B6
:100550000130C2004208013A0319B62A0030851959
:100560000130C2004208013A031D582B43219B0170
:100570009C01003005190130C2004208013A031DF8
:10058000C52A01309B0000309C00003085190130E5
:10059000C2004208013A031DD12AFF309B00FF3000
:1005A0009C009D0A03199E0A80301006C00080300E
:1005B000023A4002031DDE2A57300F020318F22AC6
:1005C00080301006C00080304002031DE92A01304F
:1005D0000F02031CF22A1B088F071C080318013F97
:1005E0009007F62A01308F000030900000301E0284
:1005F000031DFC2A0F301D02031C022B0A309B0036
:1006000000309C0000301E02031D082B1E301D020E
:10061000031C0E2B14309B0000309C0000301E0287
:10062000031D142B2D301D02031C1A2B1E309B00A2
:1006300000309C0000301E02031D202B3C301D02A8
:10064000031C262B28309B0000309C0000301E022B
:10065000031D2C2B5A301D02031C322B2D309B0006
:1006600000309C0099019A011B08323CC2001C0812
:10067000031C013FC301C30243081A02031D422B9E
:10068000420819020318572B43210230CB00FF30D8
:10069000CA00CB0B4C2B4F2BCA0B4C2B492B4A308F
:1006A000CA00CA0B512B990A03199A0A342BA62A9D
:1006B000003085180130C2004208013A031D742B36
:1006C000003085180130C2004208013A031D6A2B30
:1006D0004321602B0F089200100893000F089F0021
:1006E0001008A000B921772B03138316922A031355
:1006F00083160C2A7A2BFF3FFF3FFF3FFF3FFF3F50
:02400E00FA3F77
:00000001FF
